:020000040000FA
:1000000002EF00F0EC0E0F01D36F8A6A936A9280C0
:10001000946AC186C184C182C190C29AC298C296B4
:10002000C294C08AC098C086C084C092C090C29E4C
:10003000C280C282C2B21AEF00F0C450816EC350B7
:10004000826E25EC00F019EF00F0C80E2BEF00F0E7
:10005000320E2BEF00F0216EB40E206E0000202E29
:1000600046EF00F0212E2CEF00F0120000000000FF
:1000700000000A0E43EF00F0030E43EF00F0030E02
:1000800043EF00F0050E216EA50E206E202E46EFE8
:1000900000F0212E44EF00F01200A40E00005EEFED
:1000A00000F0510E5EEF00F01F0E5EEF00F00E0E3E
:1000B00000005EEF00F0060E5EEF00F0206E202ED6
:0A00C0005FEF00F0120000001200D4
:0200CA00000034
:020000040030CA
:0100000000FF
:010001000AF4
:0100020018E5
:010003001EDE
:010005008179
:010006008079
:010008000FE8
:01000900C036
:01000A000FE6
:01000B00E014
:01000C000FE4
:01000D0040B2
:00000001FF
